:020000040800F2
:1000000080040020010100082B1200083D0F0008A9
:1000100029120008D9030008ED12000800000000B2
:100020000000000000000000000000005112000865
:10003000DB030008000000002F1200085312000824
:100040001B0100081B0100081B0100081B01000820
:100050001B0100081B0100081B0100081B01000810
:100060001B0100081B0100081B0100081B01000800
:100070001B0100081B0100081B0100081B010008F0
:100080001B0100081B0100081B0100081B010008E0
:100090001B0100081B0100081B0100081B010008D0
:1000A0001B0100081B0100081B0100081B010008C0
:1000B0001B0100081B0100081B0100081B010008B0
:1000C0001B0100081B0100081B0100081B010008A0
:1000D0001B0100081B0100081B0100081B01000890
:1000E0001B0100081B0100081B010008DFF80CD0F1
:1000F00000F0C4F8004800470516000880040020FE
:100100000648804706480047FEE7FEE7FEE7FEE7B1
:10011000FEE7FEE7FEE7FEE7FEE7FEE7A5120008C2
:10012000ED0000082DE9F0410024061B254671F181
:10013000000605DA01240027D0EB070067EB010178
:10014000161E73F1000605DA0027D2EB070201251F
:1001500067EB030300F061F886460E4617469C469F
:10016000AC4204D00025D0EB050E65EB010624B1AE
:100170000020D2EB000760EB030C704631463A4694
:100180006346BDE8F081202A04DB203A21FA02F020
:100190000021704721FA02F3D040C2F120029140C1
:1001A00008431946704740EA01039B0703D009E062
:1001B00008C9121F08C0042AFAD203E011F8013B53
:1001C00000F8013B521EF9D27047D2B201E000F8AC
:1001D000012B491EFBD270470022F6E710B51346EB
:1001E0000A4604461946FFF7F0FF204610BD30B519
:1001F0000B46014600202022012409E021FA02F5E5
:100200009D4205D303FA02F5491B04FA02F528447E
:10021000151EA2F10102F1DC30BD2DE9F05F0546AB
:10022000002092469B4688460646814640241BE0B5
:100230002846414647462246FFF7A5FF53465A4601
:10024000C01A914110D311461846224600F028F8F2
:100250002D1A67EB01084F4622460120002100F0CD
:100260001FF817EB00094E41201EA4F10104DFDC4A
:10027000484631462A464346BDE8F09F064C074DA6
:1002800006E0E06840F0010394E807009847103466
:10029000AC42F6D3FFF72EFF94170008B4170008FE
:1002A000202A04DB203A00FA02F100207047914036
:1002B000C2F1200320FA03F3194390407047000075
:1002C00010B50D4C0022A08981B2206800F08DF994
:1002D000208A002281B2606800F087F9208A01221A
:1002E00081B2606800F081F9208A002281B26068E2
:1002F000BDE8104000F079B91000002006490268FE
:100300000A6042684A6082688A60C268CA6002699C
:100310000A614069486170471000002070B50646C8
:10032000FFF7CEFF234C00253068E84000F00102C3
:10033000A08A81B2A06800F058F9A089012281B298
:10034000206800F052F9A089002281B2206800F0F4
:100350004CF96D1C202DE7DB00253079E84000F0DA
:100360000102A08A81B2A06800F03FF9A0890122B1
:1003700081B2206800F039F9A089002281B220689A
:1003800000F033F96D1C082DE7DB208A012281B2D1
:10039000606800F02AF9A089002281B2206800F08C
:1003A00024F9208A002281B26068BDE8704000F024
:1003B0001CB90000100000201CB500210B46019163
:1003C0000146044A0020FFF7ADFE00906846FFF7A3
:1003D000A5FF1CBD40597307FEE7704770B5044682
:1003E00000F008F90546601C02D004480078044477
:1003F00000F000F9401BA042FAD370BD00000020BD
:100400002DE9F84FDFF8B891002409F1040A0AF148
:10041000040B23460F270BF1040EC9E00125A5406C
:100420002A40AA427DD1674ED1F804C0ACEB060841
:10043000B44532D014DCBCF1030F3AD009DCBCF176
:10044000000F2AD0BCF1010F1CD0BCF1020F31D13A
:100450001DE0BCF1110F17D0BCF1120F2AD119E029
:10046000B8F5881F19D006DCB8F5803F15D0B8F56F
:10047000801F1FD111E0B8F5001F0ED0B8F5041F82
:1004800018D10AE0CB6815E0CB681B1D12E0CB68E1
:1004900008330FE0CB680C330CE08B682BB1012BD9
:1004A0004FF0080303D0456104E0042302E0056136
:1004B00000E00023FF2A01D8064601E000F104060F
:1004C0004FEA840501D9A5F12005D6F8008007FA86
:1004D00005FC28EA0C0803FA05F548EA0508C6F801
:1004E00000804D68ED0062D5374DAE6946F00106DB
:1004F000AE61AD6924F0030605F001050095334DAA
:1005000006EB050CDCF80850A607360F07FA06F8CC
:1005100025EA0805DFF8B880404503D14FF0000810
:1005200017E044E0DFF8AC80404502D14FF001080D
:100530000FE0DFF8A480404502D14FF0020808E048
:10054000DFF89880404502D14FF0030801E04FF0FA
:10055000040808FA06F848EA0508CCF808804D684F
:10056000D9F80060ED034D4601D5164300E09643EF
:100570002E604D68DAF80060AD03554601D516438C
:1005800000E096432E604D68DBF80060ED025D46AA
:1005900001D5164300E096432E604D68DEF80060FA
:1005A000AD02754601D5164300E096432E60641CEB
:1005B0000D682A46E5407FF431AFBDE8F88F0000B2
:1005C0000004014000001110001002400000014032
:1005D00000080140000C01400010014000140140DF
:1005E0008068084000D0012070470AB1016170475F
:1005F0000904FBE701488068704700000000002004
:1006000070B504001BD094F83D00002520B984F893
:100610003C50204600F044F9242084F83D00206836
:10062000016821F00101016000F092FA4D4A616811
:10063000914201D84C4900E04C49884201D2012046
:1006400070BD4B492368B0FBF1F15E6826F03F06B0
:100650000E435E606368934206D94FF49673594324
:100660004FF47A73B1FBF3F12368491C1E6A26F03C
:100670003F06314319626168914210D84900401E1B
:10068000B0FBF1F2521CC2F30B02042A01D2042087
:1006900022E0B0FBF1F0401CC0F30B001CE0A368AB
:1006A000F3B301EBC10202EB0116421EB2FBF6F2FC
:1006B000521C42F48042120549D093B301EBC102AF
:1006C00002EB0111401EB0FBF1F0401CC0F30B0027
:1006D00040F4804040F400402168CA694CF6FF7342
:1006E0009A431043C861D4E90701084321680A68A6
:1006F00022F0C00210430860D4E9030101432068DE
:10070000826848F2FF339A4311438160D4E90501BE
:1007100008432168CA6822F0FF021043C86001E064
:100720000EE016E02068016841F0010101602564D7
:10073000202084F83D00256384F83E50002070BDE1
:1007400001EB4106421EB2FBF6F2521CB3E7012058
:10075000C2E701EB4101401EB0FBF1F0401CC0F3C9
:100760000B00B7E7A086010080841E0000093D0051
:1007700040420F002DE9F84F1F4690468A46044636
:10078000DDF82890FFF736FF054694F83D00202855
:100790007FD11923012240492046009500F050FCEA
:1007A000002876D194F83C00012872D0012084F80A
:1007B0003C0020680168C90703D1016841F00101CC
:1007C00001602068016821F400610160212084F843
:1007D0003D00102084F83E0000262664C4F82480E2
:1007E0006785608D20852D48E0622B464A4651463C
:1007F000204600F0BBFB90B92068416980690090F9
:1008000036E02A464946204600F099FC50B1206C5B
:10081000042804D12068016841F4007101600120BE
:10082000BDE8F88F606A216800780861606A401C42
:100830006062618D491E6185218D491E89B22185C5
:1008400022685369DB435B070BD451B10078106118
:10085000606A401C6062608D401E6085208D401E75
:1008600020852A464946204600F0C4FB0028CED108
:10087000208D0028C5D154F83D0B016841F400716A
:100880000160202004F81E09E67766770020C7E79C
:10089000FFE70220C4E70000020010000000FFFF95
:1008A00010B586B00021009101910291039100687A
:1008B000104988421BD1104CA06940F00800A0618B
:1008C000A069694600F0080004904FF44060009071
:1008D00012200190032003900848FFF791FDE06982
:1008E00040F48000E061E06900F48000049006B00C
:1008F00010BD00000058004000100240000C0140F4
:10090000024881680278114481607047000000202D
:10091000074810B5016841F010010160032000F0A4
:1009200067F8002000F006F800F024F8002010BD61
:100930000020024070B50D4D04464FF47A712878BE
:10094000B1FBF0F00A490968B1FBF0F000F0E2FAFF
:1009500048B9102C07D200222146501E00F028F87A
:1009600000206C6070BD012070BD00000000002000
:100970000C0000200C4808B5816941F0010181613B
:10098000816901F001010091C16941F08051C161AB
:10099000C06900F0805000900448416821F0E06197
:1009A00041F00071416008BD0010024000000140AC
:1009B000F0B40E4B1B680C46C3F30223C3F10705CA
:1009C000042D00D90425191D072901D2002300E0B8
:1009D000DB1E012606FA05F1491E214099409E4082
:1009E000761E16403143F0BC00F096BC0CED00E0E2
:1009F000064900F0070208684FF6FF03184040EA76
:100A00000220034A10430860704700000CED00E02C
:100A10000000FA05704700002DE9F0470F46050079
:100A200061D0434E306800F00700B84209D2306808
:100A300020F0070038433060306800F00700B8420B
:100A400051D128683B4C810712D5400703D5606817
:100A500040F4E06060602878000703D5606840F4E7
:100A6000605060606068A96820F0F0000843606032
:100A70002878C00728D06868012810D0216802288B
:100A800010D0890700292EDA616821F003010143A3
:100A90006160FFF7AFFD804641F288390DE02168C3
:100AA0008903EFE78901EDE7FFF7A4FDA0EB08015B
:100AB000494502D90320BDE8F0876068696800F005
:100AC0000C00B0EB810FEFD1306800F00700B842A6
:100AD0000BD9306820F0070038433060306800F0F0
:100AE0000700B84201D00120E5E72878400705D586
:100AF0006068E96820F4E0600843606028780007D7
:100B000006D56068296920F4605040EAC100606041
:100B100000F02EF86168084AC1F30311515CC84027
:100B20000649086006480068FFF704FF0020C2E796
:100B300000200240001002407C1700080C0000203A
:100B40000400002001490120C864704700004242AF
:100B50000448054900684968044AC1F30221515C10
:100B6000C84070470C000020001002408C1700089D
:100B700012A185B00FC98DE80F0014A0144A0068B7
:100B800004905168134801F00C03042B10D0082B7B
:100B90000ED1C1F38343C9031DF803000AD5516880
:100BA00004AAC1F34041515C0A4A5043B0FBF1F042
:100BB00005B0704708494843FAE7000002030405FE
:100BC000060708090A0B0C0D0E0F10100102000099
:100BD0000010024000127A0000093D0010B5044CDC
:100BE000A068000603D5FFF715FF8020A07210BD96
:100BF000001002402DE9F84F040070D02078C04D5D
:100C0000C00749D06868C0F38100012807D0686830
:100C1000C0F38100022809D16868C00306D528689E
:100C2000800339D560680028E7D035E06068B0F50A
:100C3000803F0BD010B1B0F5A02F11D0286820F460
:100C400080302860286820F4802002E0286840F482
:100C500080302860606890B1FFF7CCFC06460AE05F
:100C6000286840F480202860F0E700BFFFF7C2FC4E
:100C7000801B642873D828688003F7D50CE0FFF741
:100C8000B9FC064605E000BFFFF7B4FC801B6428F2
:100C9000F0D828688003F7D420789A4E80074FF068
:100CA00001094FF0000839D5686810F00C0F07D023
:100CB0006868C0F38100022809D16868C00306D4BF
:100CC0002868800714D52069012808D110E0206920
:100CD000B0B1C6F80090FFF78DFC074605E00AE1C9
:100CE000FFF788FCC01B0228C4D828688007F7D506
:100CF0002868616920F0F80040EAC10028600DE032
:100D0000C6F80080FFF776FC074604E0FFF772FCA8
:100D1000C01B022823D828688007F7D42078000752
:100D20002CD57948A169D9B1C0F80090FFF762FCD1
:100D3000074604E0FFF75EFCC01B02280FD8686A74
:100D40008007F7D571484FF4FA510068B0FBF1F015
:100D5000009000BF0098411E0091FAD20EE080E0A2
:100D6000C0F80080FFF746FC074604E0FFF742FCAE
:100D7000C01B022875D8686A8007F7D4207840071E
:100D800060D5E8690027C00008D4E86940F08050C9
:100D9000E861E869012700F0805000905C48016834
:100DA000C90513D40168834641F480710160FFF7DF
:100DB00021FC824606E000BFFFF71CFCA0EB0A0006
:100DC00064284ED8DBF80000C005F5D5E06801289E
:100DD0000AD008B1052813D0286A20F00100286243
:100DE000286A20F0040002E0286A40F0010028622E
:100DF000E06841F2883B98B1FFF7FCFB82460BE0CC
:100E0000286A40F004002862EEE700BFFFF7F2FB1B
:100E1000A0EB0A0159455AD8286A8007F6D50CE09C
:100E2000FFF7E8FB824605E0FFF7E4FBA0EB0A01D1
:100E300059454CD8286A8007F6D41FB1E86920F0DC
:100E40008050E861E06988B36968C1F381010229D3
:100E500044D00228C6F8608004D0FFF7CBFB0446DC
:100E600038E034E0FFF7C6FB074604E0FFF7C2FBBB
:100E7000C01B02282BD828688001F7D4206AB0F55F
:100E8000803F05D16868A16820F40030084368609D
:100E9000D4E908010843696821F4741108436860C3
:100EA000C6F86090FFF7A6FB044606E025E000BF09
:100EB000FFF7A0FB001B022809D828688001F7D59E
:100EC0001BE000BFFFF796FB001B022802D903209E
:100ED000BDE8F88F28688001F4D40EE00128F7D02F
:100EE0006868226A00F48031914204D1616A00F49A
:100EF0007010884201D00120EAE70020E8E70000F6
:100F00000010024000004242800442420C000020D7
:100F10000070004010B5401EB0F1807F01D3012069
:100F200010BD4FF0E02460610F21601700F0F4F96C
:100F30000020A06107202061002010BDFEE70168AD
:100F40004A69D24352050FD46FF480624A6100218E
:100F500040F8301F202242738173026942F004027C
:100F6000026101730120704700207047F8B5044604
:100F7000C06A1E460D461746082807D0012805D02E
:100F800010F5803F02D0206B122804D12068016840
:100F900041F480710160134600224FF00111204698
:100FA000009600F04DF808BB2069B0F5804F0ED0D8
:100FB0000620216800EAD51040F0F00008613346B1
:100FC0003A460B49204600F06FF878B902E005F088
:100FD000FE0000E0E8B221680861054933463A4660
:100FE000891F204600F060F8002800D00120F8BDDD
:100FF0000800010070B516460D4604460DE0204677
:10100000FFF79DFF08B1012070BD681C05D0FFF7F8
:10101000F1FA801BA84207D835B120684069C04367
:101020004007ECD4002070BD002044F8300F202190
:101030006173A073216941F0200121612073E2E70F
:101040002DE9F0471E4690460D460446C1F307477A
:10105000DDF8209008E0701C06D0FFF7CBFAA0EB7B
:101060000900B0420FD876B12068012F18D08069EE
:1010700025EA00000004000C14D000214145EAD00C
:101080000020BDE8F087002044F8300F2021617374
:10109000A073216941F02001216120730120F0E754
:1010A0004069E5E70121E9E72DE9F0479A469146D5
:1010B0000E46044600254FF02008C1F3074725E0FF
:1010C00020684069C043400514D42068016841F499
:1010D0000071016021686FF480604861256384F8C5
:1010E0003D8084F83E50206C40F00400206484F879
:1010F0003C501FE0B9F1FF3F08D0FFF77BFAA0EBAF
:101100000A0149450CD8B9F1000F09D02068012F18
:1011100013D0806926EA00000004000C0BD0CFE752
:1011200044F8305F84F80D80A573206940F02000FA
:10113000206125730120BDE8F0874069EAE770B5BA
:1011400016460D4604460DE02046FFF7F8FE08B1AE
:10115000012070BD681C05D0FFF74CFA801BA84227
:1011600007D835B120684069C0430006ECD40020A0
:1011700070BD002044F8300F20216173A0732169F5
:1011800041F0200121612073E2E7000070B586B0D4
:10119000002423480094019402940394816941F04F
:1011A00010018161816901F010010491816941F0B0
:1011B00020018161816901F020010491816941F080
:1011C00004018161816901F004010491816941F0A8
:1011D000080181618069134E00F00800049000222C
:1011E00007213046FFF701FA0720009001AA0120ED
:1011F000022582E8310069463046FFF701F93020C8
:101200008DE8310069463046FFF7FAF84020CDE915
:101210000004694630460294FFF7F2F806B070BD4C
:101220000010024000080140FEE7FFF7D7BC7047FE
:1012300070B50C46064689B2FFF7D2F905460A207A
:10124000FFF7CCF8A1B23046FFF7CAF9284070BDCD
:101250007047FFF755BB30B58FB028216846FEF7C1
:10126000BBFF14210AA8FEF7B7FF012001044204C6
:101270008DE8070004900024CDE9081402250795A5
:101280006846FFF7B7FC0F200A90CDE90B540D9488
:1012900000210AA80E94FFF7BFFBFFF753FC0FB025
:1012A00030BD00000D48016841F001010160416856
:1012B0000B4A1140416001680A4A1140016001680F
:1012C00021F480210160416821F4FE0141604FF466
:1012D0001F0181600449C00308607047001002408C
:1012E0000000FFF8FFFFF6FE08ED00E0FEE700005B
:1012F0000FB4084B10B504A902AA039800F02CF80B
:10130000044602A9002000F0D1F8204610BC5DF888
:1013100014FB0000AD1400080907090E002804DBC7
:1013200000F1E02080F80014704700F00F0000F199
:10133000E02080F8141D704702E008C8121F08C1A1
:10134000002AFAD170477047002001E001C1121F46
:10135000002AFBD1704700002DE9FF4F89B09B4662
:101360000446002506E025280BD05A460B999047E5
:10137000641C6D1C20780028F5D10DB02846BDE80E
:10138000F08F0027B8460122474900E0074314F8D0
:10139000013F203B02FA03F00842F7D120782E28C3
:1013A00019D114F8010F47F004072A280ED06FF066
:1013B0002F022078A0F1300109290CD808EB880110
:1013C00002EB410100EB0108641CF2E70A98641C7F
:1013D00050F8048B0A9020780028CED0642808D0DA
:1013E000692806D075281ED05A460B9990476D1C67
:1013F00058E00A994FF00A0901C90A91002802DA57
:1014000040422D2102E0390504D52B218DF8201012
:10141000012103E0F90704D02021F7E78A4608AE4E
:101420000DE00021FAE70A994FF00A0901C90A9173
:10143000F7E74946FEF7DBFE303106F8011D0028CC
:10144000F7D1ADEB060000F12009780701D44FF089
:101450000108C84502DDA8EB090000E00020804635
:10146000002706E008A85A46C05D0B9990476D1CFE
:101470007F1C5745F6DB04E030205A460B99904715
:101480006D1CB8F10001A8F10108F5DC05E016F8C3
:10149000010B5A460B9990476D1CB9F10001A9F157
:1014A0000109F4DC641C65E7092801000A68531C83
:1014B0000B601070704710B5012000F059F8012042
:1014C000FEF78CFF0120FEF789FF802000F050F826
:1014D0000120FEF783FFBDE810400120FEF77EBF2C
:1014E00010B53220FEF77AFF302000F041F80520D9
:1014F000FEF774FF302000F03BF80120FEF76EFF8E
:10150000302000F035F80A20FEF768FF202000F0B8
:101510002FF80A20FEF762FF282000F029F80120AA
:10152000FEF75CFF082000F023F80120FEF756FFCD
:10153000012000F01DF80120FEF750FF0120FEF70A
:101540004DFF062000F014F80120FEF747FFBDE82C
:1015500010400C2000F00CB810B1012805D102E0B9
:1015600041F0800101E041F0C001C8B2AFF300805A
:101570001CB500F0F00141F00C028DF8042041F0A0
:10158000080100018DF8051040F00C018DF80610DF
:1015900040F008008DF8070064200090042301AAA1
:1015A0004E210248FFF7E6F81CBD0000280000208D
:1015B0001CB500F0F00141F00D028DF8042041F05F
:1015C000090100018DF8051040F00D018DF806109D
:1015D00040F009008DF8070064200090042301AA60
:1015E0004E210248FFF7C6F81CBD0000280000206D
:1015F00010B5044602E0641CFFF7DAFF20780028EB
:10160000F9D110BDA4B0202115A8FEF7E5FD41F2E7
:1016100088352A224B496846FEF7C5FD494C608D46
:10162000ADF82A00E06A0B90206B0C90092204F1BF
:1016300034010DA8FEF7B7FD94F83D008DF83D008C
:1016400094F83E008DF83E00206C1090606C119074
:10165000A06C1290E06C1390206D149001203A4E13
:101660002090022021901D9604201E961F96229005
:10167000FFF74EF9FFF7EFFDFFF788FD33482060D5
:101680003348606000204FF48041A060C4E903014A
:101690006061A061E06120622046FEF7B1FFFFF7C4
:1016A0001FFF4FF47A70FEF799FEFFF704FF1DA8A5
:1016B000FEF724FE00212846FEF77EFE25A0FFF758
:1016C00097FF00210120FFF747FF26A0FFF790FFBB
:1016D0004FF4FA60FEF782FE40213046FFF7A8FD86
:1016E000074640213046FFF7A3FD0446A74226D017
:1016F00010213046FFF79CFDA0424FF0000101D0C1
:101700006D1C00E06D1E2846FEF756FE202115A830
:10171000FEF762FD00210846FFF71EFF2A4614A1CE
:1017200015A8FFF7E5FDFFF7C6FE15A8FFF760FF58
:1017300000210120FFF710FF0AA0FFF759FF2746FD
:10174000CFE70000280000200008014000580040BA
:10175000A0860100467265713A2031303020487A07
:101760000000000050686173653A302044656700EE
:10177000467265713A2564487A0000000000000056
:101780000000000001020304060708090000000031
:1017900001020304B417000800000020100000003C
:1017A00038130008C417000810000020700400005F
:1017B00048130008010000001000000000000000B5
:0417C0000024F4000D
:04000005080000ED02
:00000001FF
